:100000009BC00000B5C00000B3C00000B1C000003C
:10001000AFC00000ADC00000ABC00000A9C0000030
:10002000A7C00000A5C00000D3C500009CC600000A
:100030009FC000009DC000009BC0000099C0000050
:1000400097C0000095C0000093C0000091C0000060
:100050008FC000008DC000008BC0000089C0000070
:1000600087C0000085C0000083C0000081C0000080
:100070007FC000007DC000007BC0000079C0000090
:1000800077C0000075C0000073C0000071C00000A0
:100090006FC000006DC000006BC0000069C00000B0
:1000A00067C0000065C0000063C000001C034C0076
:1000B000550046004100200043004400430020005A
:1000C000440065006D006F000000180344006500E7
:1000D00061006E002000430061006D006500720049
:1000E000610000000403090409023E00020100C08F
:1000F000320904000001020201000524001001047D
:100100002402060524060001070582030800FF09F2
:10011000040100020A0000000705040210000507A0
:100120000583021000051201100102000008EB0314
:10013000442001000102DC0111241FBECFEFDAE0F0
:10014000DEBFCDBF11E0A0E0B1E0E0E0FAE102C027
:1001500005900D92AC36B107D9F711E0ACE6B1E0ED
:1001600001C01D92A838B107E1F761D20C94FE0CD2
:1001700047CF84B7877F84BF88E10FB6F894809318
:100180006000109260000FBE85B7806890E00FB6E7
:10019000F89485BF0FBE85BF90E080E80FB6F89455
:1001A00080936100909361000FBEF5C41BB88FEF80
:1001B0008AB985B914B811BA80EF80BB80E48EB9D2
:1001C0008DB908951BB81AB815B814B811BA10BA79
:1001D0001EB81DB80895CF93DF93CDB7DEB7AE013B
:1001E0004B5F5F4FFA0161917191AF018DE691E034
:1001F0000E94580A80E091E0DFD7DF91CF91089507
:1002000080E091E00E940A0944C70F931F93CF93A7
:10021000DF938C01D62FC0E0CD1768F480E091E029
:100220000E944D0997FD05C0F801EC0FF11D808378
:10023000CF5FE6DFF1CFDF91CF911F910F9108954E
:1002400080E091E040C780E091E00C949F099BE042
:1002500089278295807F81BB08958FB182958F70A9
:100260009BE08927089590916C01911116C020E0C0
:1002700030E070E093B12F5F3F4F26173707D0F380
:100280009058991F9927991F981739F02E3F9FEF83
:10029000390780F381E080936C0108959EB180E47A
:1002A00089278EB90895D9DF91E08927D0DFF6CF6D
:1002B000CF93C82F60E081E0D6DFCBB9F4DF60E0F8
:1002C00081E0CF91D0CFFF920F931F93CF93DF9315
:1002D000182FD62F072FF42EC52F85EDE9DF8AEAD8
:1002E000E7DF86E9E5DF812FE3DF8D2FE1DF802F78
:1002F000DFDF8F2DDDDF8C2FDBDF91E84F2D4927EE
:100300001427D1278D2F8C278027DF91CF911F9124
:100310000F91FF90CDCFCF93C62F41E050E0BC01AD
:1003200080E0D1DF8C2FC4DF81E88C27CF91C0CF54
:10033000AF92BF92CF92DF92EF92FF920F931F93F3
:10034000CF93DF936B01AB01BC0180E0BCDFE12CFC
:10035000F12C11E8EC14FD04A8F452DF80E091E0E8
:100360006FD75C01C0E0D0E0CA15DB0541F080E04A
:1003700091E093D7082F9CDF10272196F5CFEC0E44
:10038000FD1EE8CF812FDF91CF911F910F91FF903C
:10039000EF90DF90CF90BF90AF908ACFCF92DF9257
:1003A000EF92FF920F931F93CF937C01C62F00E033
:1003B00010E068018EEFD81A0E151F05B1F0612FFD
:1003C000669580E190ECA7DF40E050E0B60185E063
:1003D0007ADF60E070E280E090E8AADF80916C0153
:1003E000811129C00F5F1F4FE4CF81E0E81682E042
:1003F000F80620F061E080E190EC8DDF40E050E015
:1004000060E070E085E05FDF7E2D662765604F2D40
:1004100050E086E058DF6C2F70E0762F6627616031
:1004200040E050E086E04FDF8EE291E09F938F93B3
:10043000D2DE0F900F90CF911F910F91FF90EF9010
:10044000DF90CF900895CF93DF9363E080E00BDFE0
:10045000D3B129DF63E080E006DFC3B124DFC877D2
:10046000CC0F8D2F88778695869586958C2BDF917E
:10047000CF910895CF92DF92EF92FF921F93CF9387
:10048000DF931F92CDB7DEB76B01AB01BC0181E0FA
:100490001ADFE12CF12C11E8EC14FD0481F0D3DF1C
:1004A000898341E050E0BE016F5F7F4F80E091E0C3
:1004B0002FD6898118278FEFE81AF80AEDCFC3DF0E
:1004C00091E0181301C090E0892F0F90DF91CF9138
:1004D0001F91FF90EF90DF90CF9008950F931F939F
:1004E000CF9340E050E060E070E085E0ECDE60E05B
:1004F0008DE090EE10DF60E088E090EC0CDFC0E073
:1005000000E011E040E050E0B80185E0DCDE60E0B2
:1005100070E280E090E2AEDFC80F2FEF80E792E05C
:10052000215080409040E1F700C000000F5F1F4F56
:1005300080916C0181111CC0043021E0120711F779
:1005400080E091E039D6CC2361F01F92CF938BE10C
:1005500091E09F938F933FDE0F900F900F900F903D
:1005600007C087E291E09F938F9335DE0F900F9045
:10057000CF911F910F910895BF92CF92DF92EF928A
:10058000FF920F931F93CF93DF93EC0140E050E075
:1005900060E070E085E097DE60E08DE090EEBBDE2D
:1005A00060E088E090ECB7DE8E011F71CD2FDD2773
:1005B000C295C695C770FC2E0115110509F0F3947C
:1005C000E12C80E2B82EC0E0D1E0CF2CD12C81E02C
:1005D000C81AD108CF15D0F40115110539F0CE0194
:1005E0009A958C159D0511F4E02EB12E40E050E057
:1005F000BE0185E068DE6E2D7B2D80E090E298DE06
:10060000219680916C01882329F307C08EE291E046
:100610009F938F93E0DD0F900F90DF91CF911F910B
:100620000F91FF90EF90DF90CF90BF900895CF9300
:10063000DF93CDB7DEB72E970FB6F894DEBF0FBEAF
:10064000CDBF97DD6DE671E080E091E064D67894EF
:1006500001E511E042E6E42E41E0F42E6BE0CE012C
:100660000196D3DD1B86A2DD62E371E0CE01019627
:1006700016D7892B69F463E0CE010C96C6DD8C8514
:1006800090E0982F88272D856E85822B87DE21C0EC
:100690006CE371E0CE01019602D7892B11F41EDFC5
:1006A00018C066E471E0CE010196F9D6892B61F499
:1006B00062E0CE010C96A9DD8C8590E0982F88270A
:1006C0002D85822B59DF05C01F930F9384DD0F907A
:1006D0000F9078DD80916C01882339F0FF92EF92C2
:1006E0007ADD10926C010F900F9080E091E0D5D5EB
:1006F00097FD02C085DDF9CF83DDB0CF292F3327E9
:100700002230310559F02330310569F021303105AF
:10071000F9F482E190E026E231E01EC08EE390E041
:1007200028EE30E019C099278130910541F08230E0
:10073000910541F0892B61F4E4EEF0E005C0EAECAC
:10074000F0E002C0ECEAF0E0849190E09F0104C088
:1007500080E090E020E030E0FA01318320830895CA
:10076000CF92DF92EF92FF920F931F93CF93DF937D
:10077000EC018B016A019DD1811132C0C114D104F9
:1007800039F0F60180819181081B190BC80FD91F20
:10079000E12CF12C0115110511F18091E80085FD86
:1007A00015C08091E8008E778093E800C114D104D1
:1007B00049F0F60180819181E80EF91EF182E08214
:1007C00085E00EC076D1882329F30AC089918093F1
:1007D000F10001501109FFEFEF1AFF0ADBCF80E0B3
:1007E000DF91CF911F910F91FF90EF90DF90CF900D
:1007F000089520918601309187012617370748F028
:100800006115710539F42091E8002E772093E800F6
:1008100001C0B90140E061157105A9F120917F0186
:10082000222309F443C0253009F442C02091E80096
:1008300023FD40C02091E80022FD32C02091E80055
:1008400020FFE9CF4091F3002091F20030E0342BFB
:10085000FC01CF016115710559F02830310540F4D4
:1008600081918093F100615071092F5F3F4FF1CF6B
:1008700041E02830310509F040E02091E8002E7772
:100880002093E800C8CF4111C9CF0AC080917F01F1
:10089000882361F0853061F08091E80083FD0AC013
:1008A0008091E80082FFF2CF80E0089582E0089511
:1008B00083E0089581E008952091860130918701B9
:1008C0002617370748F06115710539F42091E800C3
:1008D0002E772093E80001C0B901FC0120E06115EA
:1008E000710591F180917F01882309F440C0853022
:1008F00009F43FC08091E80083FD3DC08091E8008D
:1009000082FD2FC08091E80080FFE9CF2091F300A5
:100910008091F20090E0922B6115710559F08830BA
:10092000910540F424912093F100319661507109B2
:100930000196F2CF21E0089709F020E08091E800CD
:100940008E778093E800CBCF2111CCCF0AC0809165
:100950007F01882361F0853061F08091E80083FD9C
:100960000AC08091E80082FFF2CF80E0089582E023
:10097000089583E0089581E00895982F973058F501
:100980009093E900981739F07091EC002091ED00F8
:100990005091F00003C0242F762F50E021FF19C0A2
:1009A0003091EB003E7F3093EB003091ED003D7FC6
:1009B0003093ED003091EB0031603093EB00709399
:1009C000EC002093ED005093F0002091EE0027FF03
:1009D00007C09F5FD3CF8F708093E90081E00895B7
:1009E00080E00895EF92FF920F931F93CF93DF93D0
:1009F000E62EEC018C010C5F1F4FF12CFE1491F1DF
:100A00005881552351F1F801208169817A8131970C
:100A10009081852F8F70873010F080E024C02230C5
:100A200010F442E001C046E0E8E0F0E020E0E61724
:100A3000F70720F42F5FEE0FFF1FF9CF2295207FDD
:100A4000422BF0E49F9F90011124551F5527551FFD
:100A5000652F622B92DF882301F3F39425960B5FB9
:100A60001F4FCCCF81E0DF91CF911F910F91FF906D
:100A7000EF9008958091800187FF11C08091E80078
:100A800082FD05C080917F018111F8CF11C0809156
:100A9000E8008B770BC080917F01882349F080911B
:100AA000E80080FFF8CF8091E8008E778093E8001F
:100AB00008952091E4003091E50095E64091EC0026
:100AC000842F817040FF22C08091E80080FD1CC00F
:100AD00080917F01882391F0853091F08091EB0027
:100AE00085FD10C04091E4005091E5004217530786
:100AF00029F39A01915011F784E0089582E0089556
:100B000083E0089581E0089580E008954091E80031
:100B100042FFDECF08950F931F93CF93DF934BD007
:100B200052D0C8EDD0E088818F7788838881806833
:100B3000888388818F7D888319BC10927F011092F1
:100B40007B0110927D0110927C0100EE10E0F80113
:100B500080818B7F808388818160888342E060E030
:100B600080E00BDFE1EEF0E080818E7F8083E2EEBB
:100B7000F0E0808181608083808188608083F801DB
:100B800080818E7F8083888180618883DF91CF918F
:100B90001F910F910895E8EDF0E080818F7E8083B2
:100BA000E7EDF0E080818160808384E082BF81E0B6
:100BB00080937E01B0CFE8EDF0E080818E7F80836E
:100BC0001092E20008951092DA001092E100089568
:100BD0001F920F920FB60F9211242F933F934F93B2
:100BE0005F936F937F938F939F93AF93BF93EF9395
:100BF000FF938091E10082FF0AC08091E20082FFB2
:100C000006C08091E1008B7F8093E10041D280910A
:100C1000DA0080FF1DC08091D80080FF19C080914C
:100C2000DA008E7F8093DA008091D90080FF0CC0BB
:100C300080E189BD82E189BD09B400FEFDCF81E07C
:100C400080937F0125D204C019BC10927F0120D26D
:100C50008091E10080FF18C08091E20080FF14C005
:100C60008091E2008E7F8093E2008091E2008061BB
:100C70008093E2008091D80080628093D80019BCF4
:100C800085E080937F0104D28091E10084FF2FC032
:100C90008091E20084FF2BC080E189BD82E189BDA3
:100CA00009B400FEFDCF8091D8008F7D8093D800DD
:100CB0008091E1008F7E8093E1008091E2008F7E41
:100CC0008093E2008091E20081608093E200809155
:100CD0007B01882311F084E007C08091E30087FD49
:100CE00002C081E001C083E080937F01D1D1809177
:100CF000E10083FF27C08091E20083FF23C0809141
:100D0000E100877F8093E10082E080937F01109271
:100D10007B018091E1008E7F8093E1008091E20071
:100D20008E7F8093E2008091E20080618093E200F8
:100D300042E060E080E021DE8091F00088608093F6
:100D4000F000A6D1FF91EF91BF91AF919F918F914C
:100D50007F916F915F914F913F912F910F900FBEB7
:100D60000F901F9018951F920F920FB60F9211249B
:100D70002F933F934F935F936F937F938F939F93A3
:100D8000AF93BF93CF93DF93EF93FF93C091E900AD
:100D9000CF708091EC00D82FD17080FDD0E81092F8
:100DA000E9008091F000877F8093F00078941ED056
:100DB0001092E9008091F00088608093F000CD2BC4
:100DC000CF70C093E900FF91EF91DF91CF91BF9178
:100DD000AF919F918F917F916F915F914F913F91D3
:100DE0002F910F900FBE0F901F9018951F93CF93C8
:100DF000DF93CDB7DEB7AA970FB6F894DEBF0FBE6C
:100E0000CDBFE0E8F1E088E08E0F9091F100919382
:100E10008E13FBCF18DA8091E80083FF21C1809107
:100E2000800190918101953009F478C030F49130BF
:100E300081F168F0933069F113C1983009F4E2C090
:100E4000993009F4F1C0963009F00AC189C08038A0
:100E500081F0823809F004C1809184018F70809301
:100E6000E9008091EB0085FB882780F91092E9006A
:100E700006C080917C0190917D01911182609091DA
:100E8000E800977F9093E8008093F1001092F100C2
:100E9000C4C0282F2D7F09F0E3C0882319F08230C9
:100EA00061F0DEC080918201813009F0D9C09330B9
:100EB00009F080E080937D012BC080918201811137
:100EC00027C0809184018F7009F4CAC08093E90023
:100ED0002091EB0020FF1CC0933021F48091EB00A7
:100EE000806214C09091EB0090619093EB0021E040
:100EF00030E0A90102C0440F551F8A95E2F74093E4
:100F0000EA001092EA008091EB0088608093EB0089
:100F10001092E9008091E800877F82C08111A0C013
:100F2000109182011F778091E3008078812B80935C
:100F3000E3008091E800877F8093E8009BDD80914B
:100F4000E80080FFFCCF8091E30080688093E3009D
:100F5000111102C082E001C083E080937F0180C054
:100F60008058823008F07CC080918201909183018A
:100F70008C3D53E0950771F583E08A838AE289838B
:100F80004FB7F894DE01139620E03EE051E2E32FE4
:100F9000F0E050935700E49120FF03C0E295EF701A
:100FA0003F5FEF708E2F90E0EA3010F0C79601C0DF
:100FB000C0968D939D932F5F243149F74FBF809149
:100FC000E800877F8093E8006AE270E0CE01019636
:100FD00010DC12C0AE014F5F5F4F609184018EDB69
:100FE000BC01892B09F43CC09091E800977F909355
:100FF000E80089819A8160DC8091E8008B7780939A
:10100000E8002EC0803861F58091E800877F8093EA
:10101000E80080917B018093F1008091E8008E7759
:101020008093E80027DD1CC081111AC090918201D5
:101030009230B0F48091E800877F8093E80090932D
:101040007B0118DD80917B01811106C08091E30056
:1010500087FD02C081E001C084E080937F01F0D869
:101060008091E80083FF0AC08091E800877F809329
:10107000E8008091EB0080628093EB00AA960FB6A7
:10108000F894DEBF0FBECDBFDF91CF911F910895C1
:101090000895CF9380917F01882399F0C091E90052
:1010A000CF709091EC00892F817090FD80E8C82B63
:1010B0001092E9008091E80083FD98DECF70C09324
:1010C000E900CF910895CF93DF93EC01FC01709676
:1010D0008BE0DF011D928A95E9F782E08C83898796
:1010E00083E08E8761E0CE0101967CDC882361F08D
:1010F00061E0CE01069676DC882331F061E0CE0116
:101100000B96DF91CF916ECC80E0DF91CF91089567
:10111000FC019B01BA0180917F01843081F48489B4
:101120009589A689B789892B8A2B8B2B41F09181D0
:101130009F709093E90040E050E0C90111CB82E03C
:1011400008950F931F93CF9320917F012430F9F4DA
:10115000FC010489158926893789012B022B032B71
:10116000B1F0C62F81818F708093E9008091E800F3
:1011700085FF04C0C093F10080E00AC08091E800C0
:101180008E778093E80095DC8823A1F301C082E08C
:10119000CF911F910F910895FB01682F848595854C
:1011A000D0DF21E030E0811102C020E030E088276C
:1011B0009927821B930B089520917F01243041F5DC
:1011C000FC014489558966897789452B462B472B35
:1011D000F9F081818F708093E9002091F300809174
:1011E000F20090E0922B892B89F09091E800809199
:1011F000E8008E778093E80095FD08C05ADC8111E5
:1012000008C08091E8008E778093E80080E0089520
:1012100082E0089520917F01243089F4FC01448903
:10122000558966897789452B462B472B41F02181CB
:101230002F702093E9002091E80020FDBDCF089594
:1012400020917F01243019F080E090E00895FC01A6
:101250004489558966897789452B462B472BA1F30D
:1012600086818F708093E9008091E80082FFECCF47
:101270002091F3008091F20090E0922B009731F4DE
:101280002091E8002B772093E80008952091F30047
:101290008091F20090E0922B089520917F012430FC
:1012A00019F08FEF9FEF0895FC01448955896689F5
:1012B0007789452B462B472BA1F386818F7080932E
:1012C000E9008091E80082FFECCF2091F30080914B
:1012D000F20090E0922B892B21F02091F10030E078
:1012E00002C02FEF3FEF4091F3008091F20090E0B9
:1012F000942B892B29F48091E8008B778093E80068
:10130000C9010895FC0184859585C7DF97FF02C058
:101310008EEF9FEF0895FB012EE0DB011D922A95D1
:10132000E9F723E023832CEC38E03187208722E89B
:1013300039E0338722879587848708950895CF936E
:10134000DF93EC018091E80083FFA6C0888190E0E4
:1013500020918401309185012817390709F09CC03C
:1013600080918101813261F020F4803209F43EC025
:1013700093C0823209F46CC0833209F47DC08CC002
:1013800080918001813A09F087C08091E800877FD1
:101390008093E8008091E80080FFFCCF8C899D89D4
:1013A000AE89BF898093F100492F5A2F6B2F772781
:1013B0004093F100AD01662777274093F1008B2F12
:1013C0009927AA27BB278093F100888D8093F1008D
:1013D000898D8093F1008A8D8093F1008091E800DF
:1013E0008E778093E800DF91CF9144CB809180018C
:1013F000813209F051C08091E800877F8093E80036
:101400008091E80082FD05C080917F018111F8CFB5
:1014100043C03091F1002091F1009091F100809152
:10142000F1003C8B2D8B9E8B8F8B8091F100888FF0
:101430008091F100898F8091F1008A8F8091E8007E
:101440008B778093E80016DBCE01DF91CF9176CFCA
:1014500080918001813201F58091E800877F80933F
:10146000E80008DB8091820190918301998B888B41
:10147000CE01DF91CF9162CF80918001813261F402
:101480008091E800877F8093E800F4DA6091820120
:10149000CE01DF91CF9152CFDF91CF910895FB0123
:1014A000DC018D91019080190110D9F3990B0895F9
:1014B000ACE0B0E0EDE5FAE06AC27C016B018A01C4
:1014C000FC0117821682838181FFB0C1CE01019693
:1014D0004C01F7019381F60193FD859193FF819172
:1014E0006F01882309F49EC1853239F493FD8591FB
:1014F00093FF81916F01853221F4B70190E0B1D162
:10150000E8CF512C312C20E02032A0F48B3269F04E
:1015100030F4803259F0833269F420612CC08D326E
:1015200039F0803339F4216026C02260246023C062
:10153000286021C027FD27C030ED380F3A3078F4FD
:1015400026FF06C0FAE05F9E300D1124532E13C013
:101550008AE0389E300D1124332E20620CC08E326A
:1015600021F426FD5FC1206406C08C3611F420688A
:1015700002C0883641F4F60193FD859193FF819175
:101580006F018111C1CF982F9F7D9554933028F41E
:101590000C5F1F4FFFE3F9830DC0833631F08337B3
:1015A00071F0833509F057C021C0F801808189832B
:1015B0000E5F1F4F44244394512C540114C0380132
:1015C000F2E06F0E711CF801A080B18026FF03C00D
:1015D000652D70E002C06FEF7FEFC5012C8736D11B
:1015E0002C0183012C852F77222E16C03801F2E0C2
:1015F0006F0E711CF801A080B18026FF03C0652D1D
:1016000070E002C06FEF7FEFC5012C8714D12C0171
:101610002C852068222E830123FC19C0832D90E0A5
:1016200048165906A0F4B70180E290E01AD13A9426
:10163000F5CFF50127FC859127FE81915F01B70168
:1016400090E00FD131103A94F1E04F1A5108411453
:10165000510479F7DEC0843611F0893631F5F8018E
:1016600027FF07C060817181828193810C5F1F4FCA
:1016700008C060817181882777FD8095982F0E5F63
:101680001F4F2F76722E97FF09C090958095709509
:1016900061957F4F8F4F9F4F2068722E2AE030E078
:1016A000A40117D1A82EA81843C0853729F42F7E8E
:1016B000B22E2AE030E025C0F22FF97FBF2E8F3600
:1016C000C1F018F4883579F0ADC0803719F088374B
:1016D00021F0A8C02F2F2061B22EB4FE0DC08B2D9B
:1016E0008460B82E09C024FF0AC09F2F9660B92ECF
:1016F00006C028E030E005C020E130E002C020E173
:1017000032E0F801B7FE07C0608171818281938168
:101710000C5F1F4F06C06081718180E090E00E5F1A
:101720001F4FA401D6D0A82EA818FB2DFF777F2E1F
:1017300076FE0BC0372D3E7FA51450F474FE0AC010
:1017400072FC08C0372D3E7E05C0BA2C372D03C071
:10175000BA2C01C0B52C34FF0DC0FE01EA0DF11DFD
:101760008081803311F4397E09C032FF06C0B39402
:10177000B39404C0832F867809F0B39433FD12C06C
:1017800030FF06C05A2CB31418F4530C5B18B32C5A
:10179000B31460F4B70180E290E03C8762D0B39468
:1017A0003C85F6CFB31410F43B1801C0312C34FF44
:1017B00011C0B70180E390E03C8753D03C8532FFF5
:1017C00016C031FD03C088E790E002C088E590E0D4
:1017D000B7010CC0832F867851F031FF02C08BE235
:1017E00001C080E237FD8DE2B70190E03AD0A51448
:1017F00030F4B70180E390E034D05A94F8CFAA9443
:10180000F401EA0DF11D8081B70190E02AD0A1100A
:10181000F6CF332009F45DCEB70180E290E021D00D
:101820003A94F7CFF7018681978102C08FEF9FEF3F
:101830002C96E2E1C8C0FC01059061507040011097
:10184000D8F7809590958E0F9F1F0895FC016150E9
:10185000704001900110D8F7809590958E0F9F1FD2
:1018600008950F931F93CF93DF93FB01238121FDF5
:1018700003C08FEF9FEF28C022FF16C0468157811B
:10188000248135814217530744F4A081B1819D0121
:101890002F5F3F4F318320838C93268137812F5FC9
:1018A0003F4F3783268310C0EB01092F182F008488
:1018B000F185E02D0995892BE1F68E819F810196B6
:1018C0009F838E83812F902FDF91CF911F910F9156
:1018D0000895FA01AA27283051F1203181F1E894C6
:1018E0006F936E7F6E5F7F4F8F4F9F4FAF4FB1E013
:1018F0003ED0B4E03CD0670F781F891F9A1FA11D0E
:10190000680F791F8A1F911DA11D6A0F711D811D0E
:10191000911DA11D20D009F468943F912AE0269FD3
:1019200011243019305D3193DEF6CF010895462F32
:101930004770405D4193B3E00FD0C9F7F6CF462F13
:101940004F70405D4A3318F0495D31FD405241937C
:1019500002D0A9F7EACFB4E0A69597958795779539
:101960006795BA95C9F700976105710508959B01C0
:10197000AC010A2E06945795479537952795BA9549
:10198000C9F7620F731F841F951FA01D08952F9222
:101990003F924F925F926F927F928F929F92AF92FF
:1019A000BF92CF92DF92EF92FF920F931F93CF934C
:1019B000DF93CDB7DEB7CA1BDB0B0FB6F894DEBFE3
:1019C0000FBECDBF09942A88398848885F846E8409
:1019D0007D848C849B84AA84B984C884DF80EE8053
:1019E000FD800C811B81AA81B981CE0FD11D0FB65C
:1019F000F894DEBF0FBECDBFED010895F894FFCF80
:101A000000831000000104100000018208000001A2
:101A100000000000000000000000002A232A232A02
:101A200045525225730A002A232A232A232A4F4B80
:101A30000A00575249544520524F4D0052454144E7
:101A4000205352414D005752495445205352414D65
:101A500000554E4B4E4F574E20434F4D4D414E4437
:0C1A60000A0054494D454F55540A00003F
:00000001FF
